:1000000002020580197524007525207526047527C0
:10001000187528427529817A007B2480002280E5AA
:1000200080338C248D258013758CD8758AF0D28C02
:10003000308D02800280F9C28DC28CAC24E525FD92
:10004000152570021524ED24FFEC6480347F4002F6
:10005000800280D42280CB02017B1200038A228B93
:100060002375890102017785228385238212017E0F
:10007000F5907C007D01120020752000752101E5BE
:100080002124EEE5206480347F5002800280030248
:100090000177E52124FEE5206480347F4002800260
:1000A000800F852283852382A312017EF5900201B1
:1000B00057E52124FDE5206480347F40128000E56F
:1000C0002124FEE5206480347F5004800080048079
:1000D00000800F852283852382A3A312017EF590E1
:1000E0008075E52124FAE5206480347F4012800089
:1000F000E52124FDE5206480347F500480008004E5
:1001000080008010852283852382A3A3A312017E11
:10011000F5908043E52124F3E5206480347F40128C
:100120008000E52124FAE5206480347F50048000BB
:10013000800480008011852283852382A3A3A3A34A
:1001400012017EF5908010852283852382A3A3A3CC
:10015000A3A312017EF5907C007D6412002005218E
:10016000E52170020520E52124EEE5206480347F3E
:10017000500280030200920200672202005AE583C7
:100180006003E49322A882E622E5836004E493807E
:1001900003A882E6F822E5836004E4938003A88242
:1001A000E6F922E5836004E4938003A882E6FA225C
:1001B000E5836004E4938003A882E6FB22E5836084
:1001C00004E4938003A882E6FC22E5836004E493C0
:1001D0008003A882E6FD22E5836004E4938003A8FF
:1001E00082E6FE22E5836004E4938003A882E6FFB2
:1001F00022E4F5D075812A78207A0AF608DAFC1212
:0802000000570200000201F1A9
:00000001FF
